:020000040800F2
:1000000000100020E91A0008331B0008790D0008D1
:1000100000000000000000000000000000000000E0
:10002000000000000000000000000000371B000876
:100030000000000000000000391B00087D0D0008D2
:100040003F1B0008411B0008431B0008451B00081C
:10005000471B0008491B00084B1B00084D1B0008EC
:100060004F1B0008511B0008C11A0008D1020008EC
:10007000571B0008591B00085B1B00085D1B00088C
:100080005F1B0008611B0008631B0008651B00085C
:10009000671B0008691B00086B1B00086D1B00082C
:1000A0006F1B0008711B0008731B0008751B0008FC
:1000B000771B0008791B00087B1B00087D1B0008CC
:1000C0007F1B000810B5054B054A5C6822405A604A
:1000D0005A6811430843586010BDC04600100240E2
:1000E000FF7FC2FF0321034A53688B4318435060CC
:1000F0007047C046001002408288034B1340838043
:100100008388194381807047FFEFFFFFF7B5802296
:100110003C4C0191A369D202134310270022082509
:10012000A361394B39495A62DF629A889E1D2A437E
:100130009A8003225A631A8B68352A431A83012254
:100140001D8C15431D84F58F0D43ADB2F5878026B8
:1001500076009E8165692E49154365612D4DA96024
:100160002D490968E9602D496E60296029681143AD
:1001700029608025A1692D012943A161284C2949C5
:10018000A16029490968E160284966602160216809
:100190001143216026490D60C225AD004C5924024F
:1001A000240A4C51234C0021E762F0276162258B21
:1001B000FF013D4368272583A58B14493D43CC2788
:1001C000A583258CBF003D432584A71DFD8F0D43CE
:1001D000ADB2FD873425A68125811D8815431D807C
:1001E00023881A43144B22801860144B144A186059
:1001F000019B5B08C3181360019BC118114B196068
:10020000F7BDC04600100240004801400080FFFFDB
:100210003C2C01400800024000000020B0310000EA
:1002200058000240382C014004000020B631000084
:1002300000E100E0002C01402C00002034000020F0
:10024000300000203800002070B51A4C06002368EA
:100250008023194A1089184D1840FBD140222B8861
:1002600093432B802B88083A93432B80FFF73AFF68
:100270002268124B134023603268114B9A4205D01A
:100280008021802049034002FFF71CFF8022236861
:1002900052041343236080239B0422681A42FCD03B
:1002A00040222B88022013432B80FFF71BFF0020E6
:1002B00070BDC0460010024000300140FFFFFFFE4D
:1002C00000225600014B18687047C0462C000020E1
:1002D0008022F0B5D34BD202196883B0114213D1FA
:1002E000802219689202114200D0A7E1CE4B9C46B1
:1002F0006246CE4B12681B689A4203D36246CC4BCF
:100300001B68136003B0F0BD80270F218225C6480B
:100310005A600268844650788424C64BC64E000951
:1003200080003668C0587F00F05110788627000999
:100330008000C0586D003060507864000840800034
:10034000C0587F0070511078882508408000C05840
:100350006D007060D07800098000C05830519078EE
:1003600000098000C058B060D4788A200C40A400F6
:10037000E4584000F45194780C40A400E458F46030
:1003800057798C243F09BF00FF58640077511579D5
:100390002D09AD00ED58356157798E250F40BF000E
:1003A000FF586D003750107908408000C0587061C8
:1003B000D77990203F09BF00FF584000375194790A
:1003C0002409A400E458B461D77992240F40BF00F7
:1003D000FF586400775195790D40AD00ED58F561F7
:1003E000577A94253F09BF00FF586D003750107AA7
:1003F00000098000C0583062577A96200F40BF0035
:10040000FF5840003751147A0C40A400E45874623D
:10041000D77A98243F09BF00FF5864007751957A36
:100420002D09AD00ED58B562D77A9A250F40BF006F
:10043000FF586D003750907A08408000C058F06235
:10044000577B9C203F09BF00FF5840003751147B69
:100450002409A400E4583463577B9E240F40BF0056
:10046000FF5864007751157B0D40AD00ED58756362
:10047000D77BA0253F09BF00FF586D003750907B08
:1004800000098000C058B063D77BA2200F40BF0096
:10049000FF5840003751947B0C40A400E458F463AB
:1004A000577CA4243F09BF00FF5864007751157C96
:1004B0002D09AD00ED583564577CA6250F40BF00CF
:1004C000FF586D003750107C08408000C0587064A1
:1004D000D77CA8203F09BF00FF5840003751947CCB
:1004E0002409A400E458B464D77CAA240F40BF00B8
:1004F000FF5864007751957C0D40AD00ED58F564D0
:10050000577DAC253F09BF00FF586D003750107D67
:1005100000098000C0583065577DAE200F40BF00F5
:10052000FF5840003751147D0C40A400E458746516
:10053000D77DB0243F09BF00FF5864007751957DF7
:100540002D09AD00ED58B565D77DB2250F40BF0030
:10055000FF586D003750907D08408000C058F0650E
:10056000577EB4203F09BF00FF5840003751147E2A
:100570002409A400E4583466577EB6240F40BF0017
:10058000FF5864007751157E0D40AD00ED5875663B
:10059000D77EB8253F09BF00FF586D003750907EC9
:1005A00000098000C058B066D77EBA200F40BF0057
:1005B000FF5840003751947E0C40A400E458F46684
:1005C000577FBC243F09BF00FF5864007751157F57
:1005D0002D09AD00ED583567577FBE250F40BF0090
:1005E000FF586D003750107F08408000C05870677A
:1005F000D07F00098000C0583051947F100024093A
:10060000A400E4582030B467D47F0C40A400E45820
:100610007451927F11408900CB58F367634618608C
:1006200066E6C046000002402C0000203800002092
:1006300034000020001D000804000020D7495A6043
:100640000B688C465978D64A090989008958C02513
:100650000C0080270F20D34E6D003168C4264C510A
:100660001D78C2242D09AD00AD586400CD515D78D0
:1006700076000540AD00AF58C6250F511C786F00BD
:100680000440A400A458423D4C51DC782409A40045
:10069000A558C8248D5188269D7864002D09AD0089
:1006A000AD588D51DD7842360540AD00AD5876002D
:1006B000CD518C279D780540AD00AD58CD515D7969
:1006C00040372D09AD00AD587F000D5190251C79A4
:1006D0002409A400A4584C515C790440A400A558F6
:1006E000CE248D5194261D7964000540AD00AD588F
:1006F0008D51DD792D09AD00AE58D025CE5198270A
:100700009E796D003609B600B658CE51DE790640A6
:10071000B600B758D2260F519C279C79760004402A
:10072000A400A458CC515C7A38372409A400A458FA
:100730007F004C51A0251C7A2409A400A4584C51D8
:100740005C7A36350440A400A4586D008C51A42670
:100750001C7A0440A400A4588C51DC7A2409A4001B
:10076000A658D824CE51A8279E7A64003609B60030
:10077000B658CE51DE7A0640B600B758DA264F5149
:10078000AC279D7A76000540AD00AD58CD515D7B1C
:100790002D09AD00AF58DC250F51B0271C7B6D0033
:1007A0002409A400A458CC515C7B0440A400A758A1
:1007B000DE248F51B4271E7B64000640B600B65875
:1007C000CE51DE7B2C373609B600B6587F004E512D
:1007D000B8269D7B2D09AD00AD588D51DD7B2A36A5
:1007E0000540AD00AD5876000D51BC259C7B044002
:1007F000A400A4584C515C7C2409A400A558E4240E
:10080000CD51C0271D7C64002D09AD00AD58CD51E0
:100810005D7C0540AD00AF58E6258F51C4271E7C96
:100820006D000640B600B658CE51DE7C3609B600E3
:10083000B758E8260F51C8279C7C76002409A400ED
:10084000A458CC51DC7C22370440A400A4587F007B
:100850004C51CC259C7C0440A400A4584C515C7D98
:1008600020352409A400A4586D008C51D0261C7D8D
:100870002409A400A4588C515C7D0440A400A6580F
:10088000EE24CE51D4271E7D64000640B600B65833
:10089000CE51DE7D3609B600B758F0264F51D82725
:1008A0009D7D76002D09AD00AD58CD51DD7D054013
:1008B000AD00AF58F2250F51DC279C7D6D00044040
:1008C000A400A458CC515C7E2409A400A758F424A9
:1008D0008F51E0271E7E64003609B600B658CE510F
:1008E0005E7E16370640B600B6587F004E51E426AD
:1008F0001D7E0540AD00AD588D51DE7EF8253609D0
:10090000B600B6586D000E51E8269C7E2409A4005E
:10091000A4588C51DC7E0440A400A658FA24CE5181
:10092000EC279E7E64000640B600B658CE515E7F2E
:100930003609B600B758FC264F51F0271D7F7600C8
:100940002D09AD00AD58CD515D7F0540AD00AF58CC
:10095000FE256D000195F4250F511C7FFC270440F6
:10096000A400A4584C51DC7F04352409A400A458E9
:100970008C519C7F2409A400A4584C51DC7F019D1C
:100980000440A400A4584C519C7F20332040800098
:100990008258CA5162461360AAE4C0462C00002067
:1009A000001D0008040000208021174B89025A69AD
:1009B000A8200A4380215A615A69C9020A435A6130
:1009C0009023DB0519680002014319609A6802430D
:1009D0009A60A8220420D201DA600C4A116801430F
:1009E00011600821A02091608822196880030143CA
:1009F0001960596A9200114359629A6802439A60D9
:100A0000034ADA607047C046001002400004004804
:100A1000000124008020802110B50F4C4002236883
:100A20004903034323602368FFF74CFB80222368BC
:100A300052041343802223608023920421681142D0
:100A400003D1002B04D0013BF8E70220002B00D19A
:100A50000020FFF747FB10BD00100240F7B506006D
:100A6000002000F039FD00232F4D04212A006846A4
:100A7000009300F075FC2D4B009A9A4252D10C2045
:100A800000F02AFD2A000421684600F069FC009B62
:100A90001A00274B9A4245D110242A0004216846A7
:100AA00000F05EFC2000083000F016FD2A00042152
:100AB00001A800F055FC0122019B1BBA134200D093
:100AC000013301931A4F009BBB421ED00BD8194A29
:100AD000934220D12A000421300000F041FC336809
:100AE0001BBA336017E0144A934203D0134A93426F
:100AF00002D010E0103411E02A000421684600F012
:100B00002FFC009BBB4206D00CE0019B0C34B36071
:100B10007460002007E0019B0C33E418200000F013
:100B2000DBFCBAE70120FEBD1C00002046524D3818
:100B3000445344204653202050524F50434D50526E
:100B400010B503780400002B02D101F0C9F806E0CB
:100B5000034901F0AEF80349200001F0AAF810BDE6
:100B6000401D00084509002070B505000E0001F089
:100B7000BFF82C1823782F2B06D1002E08D0210087
:100B8000300001F0ADF803E0A542F6D0013CF1E7FA
:100B90000023237070BD0000F0B5234E234D85B0B7
:100BA0003100280000F012FD737A2F00204C002B3A
:100BB00015D12378002B19D001A92000FFF7D4FF0D
:100BC0002100280000F0DEFC1749380000F0FEFC90
:100BD00001A9184801F07AF80028F5D117E0337A16
:100BE00014492000102B06D1FFF7AAFF210028008E
:100BF00000F0C8FC0BE0FFF7A3FF200000F084FB2F
:100C0000002105002000FFF7AFFF002D01D00124D7
:100C100007E001A8FFF722FF041EF8D101A8FFF7A3
:100C200013FB200005B0F0BD3C090020C0090020E6
:100C30008009002045090020F7B58021434AC903F7
:100C400093690B4380219361414B0901DA680A43A0
:100C50008021DA60DA6889020A43DA60FFF7DAFE97
:100C6000FFF7A2FE00F096FE00F0B4F800F0C2F824
:100C7000384800F0A9FA002807D0BFF34F8F364A52
:100C8000364BDA60BFF34F8FFEE7354908703548C1
:100C900000F078FC061E07D0BFF34F8F2E4A2F4B73
:100CA000DA60BFF34F8FFEE7E021E0272E4DC90049
:100CB0002800FFF72BFA2D4C01952660BF00236812
:100CC000002B04D09023DB051B8ADB060FD4E02227
:100CD000AA21D200019800F073F890211023C905D1
:100CE0000A8A1A42FCD0FFF757FF0028FBD1FFF712
:100CF000E9FA1F4D2B689842F9D330BFE0211D4E11
:100D000022008900306800F087FB2068B84205D0D7
:100D100033683A1AAA21181800F052F8FFF7D2FAED
:100D20002B689842FAD230BFE025AD00220029009E
:100D3000180000F071FB2068B842C0D033682A1A4E
:100D4000AA21181800F03CF8B9E7C046001002408C
:100D500000580140540900200400FA0500ED00E0AD
:100D600080090020C00900203C0200201C00002057
:100D7000080000200C00002000BE704700BE704735
:100D8000F0B50D4B0D4CDD68002D04D08025AD0174
:100D900026682E42FCD00126C0271D68FF01B543FE
:100DA0001D6065683D436560D86099605A601A6847
:100DB00032431A60F0BDC0464400024000000240C9
:100DC000030010B5013A017001301900FFF7D8FF98
:100DD00010BD00000121044A53690B435361034ACB
:100DE000034B1A607047C04600100240C05000001C
:100DF0004400024010B500F001FD0028FBD110BDF9
:100E0000F7B50B4C0193236807000D000092094EC3
:100E10008B4204D000223100280000F093FD009B9B
:100E20003800F118019A256000F03AFF0020FEBD5D
:100E300010000020D40B0020F7B50D4C1F002368D4
:100E400000900D0001920B4E8B4208D1019B00983F
:100E5000F1183A002560FFF793FF002007E0002219
:100E60003100280000F06EFD0028EFD00120FEBD0B
:100E700014000020D4090020C37882781B02134399
:100E800042781B02134300781B021843704700008E
:100E9000064B1A68831E9168002002398B4203D2E8
:100EA00090784343506918187047C04620000020CE
:100EB000084B1B681A780023032A04D1437D027D66
:100EC0001B0213431B04C27E807E12021043184390
:100ED0007047C0462000002010B50F4B04001A6870
:100EE0000023038083681800012B13D09168012030
:100EF0008B420FD2002B03D11178032900D1136943
:100F0000E360002B03D01800FFF7C2FF00E0106978
:100F10002061002010BDC04620000020F0B5040074
:100F200085B001285BD92F4B1D68AB68984256D21B
:100F30002E78022E30D0032E3FD0012E4FD1410803
:100F400009184B0A0193284BCA05D20DE96803AF73
:100F50009A4204D0019B3800591802230EE0019BED
:100F6000380059183300FFF74BFF021E37D1E968EC
:100F7000019B0131C918330002A80530FFF740FF7B
:100F800000282CD17B7838781B0203431809E2072C
:100F900026D41805000D23E0EB68C2B2010A03ADA8
:100FA000C918520033002800FFF72AFF002816D185
:100FB00068782B780002184312E07F22E96802402B
:100FC000C40992006118042303A8FFF719FF002841
:100FD00005D103A8FFF750FF0001000900E0012040
:100FE00005B0F0BD20000020FF01000070B50488AE
:100FF00005000134A4B2002C01D1032322E00369CF
:10100000002BFAD022071BD101330F4A0361C068BD
:101010001668002803D1B388A342EED910E0B37854
:101020002209013B1A420BD1FFF778FF01239842B6
:1010300008D9B3689842E0D2E860FFF729FF286139
:1010400000232C80180070BD20000020FF2270B506
:101050000223520004000D00FFF7D2FE03230028F4
:101060002BD16278237812021A43154912B2022357
:101070008A4222D1362229002000FFF7C1FE002833
:1010800008D16278237812021A430E4912B2030083
:101090008A4212D00223522229002000FFF7B0FE1C
:1010A0000123002809D1637820781B020343064AF4
:1010B0001BB29B18581E8341DBB2180070BDC0469E
:1010C00055AAFFFF46410000BABEFFFFF7B5040076
:1010D000150000912B78202B01D10135FAE72F3B29
:1010E0005A4253410027ED18A7602B781F2B01D9D6
:1010F000019742E02000FFF7EFFE009B06001F7003
:1011000060E0002308211A00561CAA5CF6B2202ACF
:101110003DD8AD192026019B96425B41C372200049
:10112000FFF7DAFE061E4DD108270F23228821691A
:101130001A40520111330098FFF762FE002838D19F
:10114000009B1B78002B36D0009BDA7A13003B40C3
:1011500028D16168581C84460098C05CCB5C9842DA
:1011600020D163460B2BF5D1CB7A002B2AD1D306A5
:1011700021D50098FFF79CFEA06060680200030084
:101180000B329342BDD0202119700133F9E72F2A89
:10119000BFD02E2A11D09942BBD95F1CC254FBB2DA
:1011A0003200B1E72000FFF721FF0028BDD0060084
:1011B00008E0012606E0032604E00829A9D10B0077
:1011C0000331EDE73000FEBD0023F0B5494D8FB08F
:1011D0002B600700FFF70EFE012318400400039563
:1011E0000220002C00D083E005AD21002800FFF78D
:1011F0002DFF012817D1DF221023520021002800E3
:10120000FFF7FEFD002801D0012071E02B79002BB3
:1012100001D106206CE007A8FFF72EFE04000100B4
:101220002800FFF713FF0328EED00028F1D1242374
:101230000D2221002800FFF7E3FD0028E4D1A87A61
:101240006E7A0002304304D11B2004ABC018FFF7B4
:1012500013FEEE786B784643A87800020343E41847
:1012600000932B78287901936B461B79FC60BB7047
:101270006B791B0218436B4602901B89E879BB808F
:10128000AB790002184304D1172004ABC018FFF754
:10129000F3FD029B01991D09009BC01A801B401B96
:1012A00000F072FC144A1549831C8018BB60144A74
:1012B000884219D993420FD9032323203B7004ABF2
:1012C000C018FFF7D9FD386100206419039BA619E7
:1012D0007E6178701F600BE00A4A934299D801231F
:1012E0003B7033193B61EFE79342E5D80223F7E700
:1012F0000FB0F0BD200000200AF0FFFFFEEF00005D
:10130000F6FF0000F60F000070B5144B02001C68D9
:1013100090B00520002C1ED0002363706B4608AEF1
:10132000310003A80493FFF7D1FE002813D13378CE
:101330000330002B0FD01023F57A1D400BD1300065
:10134000FFF7B6FD20620FA8FFF796FD0123E061CD
:101350002800A561637010B070BDC0462000002059
:10136000F7B52C4B01901C68002317001360052073
:101370009C424ED063780138DB074AD5E369A26905
:101380009D1A8D4221D90D001FE0A369DA051FD0F7
:10139000A3692E00DA058023D20D9B009B1A9D4283
:1013A00000D91E003300A16A0198FFF729FD00282B
:1013B0002AD1A369AD1B9B19A3613B689B193B60B4
:1013C000019B002B01D09B190193002DDDD11FE063
:1013D000A678580A013E0640F6B2002E09D1002B2D
:1013E00001D1206A02E0606AFFF798FD01280BD95D
:1013F0006062606AFFF74CFD002802D16070013026
:1014000007E03018A062C3E700230120637000E00A
:101410002800FEBD20000020F7B52E4B01901C686F
:1014200000231700136005209C4251D063780138D7
:10143000DB074DD5E369A2699D1A8D4221D90D00C4
:101440001FE0A369DA051FD0A3692E00DA05802307
:10145000D20D9B009B1A9D4200D91E003300A16A49
:101460000198FFF7E9FC00282AD1A369AD1B9B195D
:10147000A3613B689B193B60019B002B01D09B192A
:101480000193002DDDD11FE0A678580A013E0640E9
:10149000F6B2002E09D1002B01D1206A02E0606A69
:1014A000FFF73CFD01280BD96062606AFFF7F0FC92
:1014B000002802D1607001300AE03018A062C3E752
:1014C00000230120637003E0606AFFF727FD280016
:1014D000FEBDC04620000020F7B5294A030014686D
:1014E0000520002C4AD062780138D20746D5E5693C
:1014F0009D4200D91D000020A369A06185423DD016
:10150000A6787602834212D03100681E5F1E00F07A
:101510003BFB31000190380000F036FB019B834219
:1015200005D373423B40A361ED1A606A0EE0206A66
:1015300060620BE0FFF7F2FC01280AD9A368984229
:1015400007D2A36960629B19A361AD1BB542F1D8B4
:1015500003E000230120637010E0A369ED18A5618A
:10156000FFF796FC002802D16070013006E0A378F6
:101570006D0A013B1D402818A0620020FEBDC04638
:101580002000002030B5104B04001B688DB00A000D
:101590000520002B16D001AB04AD636029002000AC
:1015A000FFF794FD00280DD12B78002B07D0EB7AA4
:1015B0000330DB0606D52800FFF77AFCA060200088
:1015C000FFF78AFC0DB030BD20000020F0B53F4B86
:1015D00004001B688DB00D000520002B74D001ABFA
:1015E000636002380827002918D12000FFF774FC37
:1015F0006AE00F23228804AE1A40520111333000F2
:10160000FFF7FEFB002859D13378002B5AD0E52B89
:1016100008D12000FFF7EAFC00280BD1216900293E
:10162000E7D105E02E2BF4D0F37A3B42F1D105E06F
:10163000002803D000232361032845D12A00236911
:101640000932002B31D01600002304AFD95D2029C8
:1016500007D0052900D1E031D15401330136082BE0
:10166000F4D13B7A202B0FD02E2273707B7A32700C
:10167000B21C202B04D0B370BB7AF21C202B01D1FA
:10168000160001E0F3700436FB7A0BA82B72FFF70B
:10169000F3FB7B7E3A7E1B021343AB80FB7DBA7D5E
:1016A0001B02134332002860EB80002520001570D8
:1016B000FFF79CFC032807D1280005E00023012048
:1016C000236101E02361B9E70DB0F0BD20000020E7
:1016D000BFF34F8F024A034BDA60BFF34F8FFEE731
:1016E0000400FA0500ED00E010B500F0A5F900F0E7
:1016F000A3F9094A1368013313600222074B9A6168
:10170000074B1A681C00002A00D090470023054AA6
:101710002360137010BDC04618000020000400486C
:10172000280000202400002010B50C4BDA68127845
:10173000FE2A04D18021D868094A89000AE00949B3
:101740000A68501E0860002A01D1FFF7C1FF01217D
:10175000D868054A00F088F910BDC0461C00024058
:10176000E9160008D80D002029170008F8B5224C0A
:10177000070023780D00002B02D1122800D14D0262
:101780004020384300F04CF9280E00F049F9280CAD
:10179000C0B200F045F9280AC0B200F041F9E8B241
:1017A00000F03EF98720082F00D0952000F038F98E
:1017B000422500F041F97F23060003407F2B04D12E
:1017C000013DEDB2002DF4D111E000280FD13A2FE8
:1017D0000DD100F031F9430602D50123237000E05A
:1017E000267000F029F900F027F900F025F900F043
:1017F00023F93000F8BDC046D40D0020F8B5802391
:101800000A24264E9B02B361013CFF20E4B200F0A3
:1018100007F9002CF8D1222500210800FFF7A6FFC8
:10182000012805D0013DADB2002DF5D1012433E0F2
:101830004225D52108204900FFF798FF012805D04F
:10184000013DADB2002DF4D1012700E002270025B3
:1018500000213720FFF78AFF012808D180210135B8
:10186000C9052830ADB2FFF781FF402DDED8002832
:10187000EED10B4B1870022F02D00223B3610BE0A4
:10188000422500213A20FFF771FF0028F5D0013DE5
:10189000ADB2002DF5D1F0E72000F8BD00040048FE
:1018A000D40D0020F0B585B00191204907000C78D7
:1018B0000292E4B20123002C33D180201C4A800222
:1018C0001C4E90610B7033680392BB421CD0250004
:1018D00001330ED000210C20FFF748FF002808D06C
:1018E0000135422DF6D1FFF7F3FE6B1C412DFAD0E6
:1018F0001D0039001220FFF739FF0028F5D18023A1
:10190000039A9B0237609361029A0B4B01211A6084
:1019100080220A4BD2001A600198094A00F0A4F80C
:1019200000E01C00200005B0F0BDC04624000020EF
:10193000000400481800002028000020D80D0020D6
:101940002917000810B5FFF7ADFF024A1378002BE6
:10195000FCD110BD240000200222802110B5094BCB
:1019600049019A61084A094C936920000B4393612D
:10197000074BA380FEF7C0FBD122238892001343BC
:10198000238010BD000400480010024000300140D8
:101990000307000010B5FFF7DFFF0121144A4020C4
:1019A0005369144C0B4353611022134B1988814324
:1019B000198012490A60124A8C60CA608221114A59
:1019C000116094600322998811439980C2211A887A
:1019D000890002431A800C4A0C4B50580340802067
:1019E0000004034353508023DB00136010BDC04646
:1019F000001002400C300140003001403000024035
:101A0000441D00081C00024000E100E0FFFF00FF51
:101A1000802302490A891A42FCD1704700300140F4
:101A2000022303490A891A42FCD0024B18707047FE
:101A3000003001400C300140012230B5084C094D06
:101A40002189084B0648114201D02B78F8E7FF2284
:101A50001A70FE3A01891142FCD01878C0B230BD2C
:101A6000003001400C30014070B505000C0016003C
:101A7000FFF7CEFF802201210C4B92029A610C4AA3
:101A800013688B4313600B4B1868884318600A482F
:101A900006600A48D560D86054605C6010680843EE
:101AA00010601A681143196070BDC04600040048F8
:101AB0001C00024030000240E00D0020441D0008E0
:101AC000202210B5054B1968114205D05A60044B0D
:101AD000D868044B1B68984710BDC0460000024000
:101AE0001C000240E00D00200749084A084B9B1AE1
:101AF00005DD00240859105104349C42FADB0548E6
:101B00008047054800470000481D000800000020ED
:101B10001C000020A90900081D1B00081849194ACB
:101B2000002301E00B6004319142FBD3FFF784F8FE
:101B3000FEE7FEE7FEE7FEE7FEE7FEE7FEE7FEE77D
:101B4000FEE7FEE7FEE7FEE7FEE7FEE7FEE7FEE76D
:101B5000FEE7FEE7FEE7FEE7FEE7FEE7FEE7FEE75D
:101B6000FEE7FEE7FEE7FEE7FEE7FEE7FEE7FEE74D
:101B7000FEE7FEE7FEE7FEE7FEE7FEE7FEE7FEE73D
:101B80001C00002000100020002243088B4274D368
:101B900003098B425FD3030A8B4244D3030B8B426E
:101BA00028D3030C8B420DD3FF22090212BA030C77
:101BB0008B4202D31212090265D0030B8B4219D358
:101BC00000E0090AC30B8B4201D3CB03C01A524178
:101BD000830B8B4201D38B03C01A5241430B8B42C0
:101BE00001D34B03C01A5241030B8B4201D30B03A9
:101BF000C01A5241C30A8B4201D3CB02C01A5241D0
:101C0000830A8B4201D38B02C01A5241430A8B4292
:101C100001D34B02C01A5241030A8B4201D30B027B
:101C2000C01A5241CDD2C3098B4201D3CB01C01A95
:101C3000524183098B4201D38B01C01A524143099F
:101C40008B4201D34B01C01A524103098B4201D38D
:101C50000B01C01A5241C3088B4201D3CB00C01AFA
:101C6000524183088B4201D38B00C01A5241430872
:101C70008B4201D34B00C01A5241411A00D2014697
:101C8000524110467047FFE701B5002000F006F80A
:101C900002BDC0460029F7D076E770477047C046BE
:101CA000002310B59A4203D0CC5CC4540133F9E749
:101CB00010BD020010B51378002B01D00132FAE7F5
:101CC000CC5CD4540133002CFAD110BD02780B78CF
:101CD000002A03D0013001319A42F7D0D01A704760
:101CE000031C0A7801311A700133002AF9D17047B8
:101CF0000023C25C0133002AFBD1581E704700004C
:101D000000000000000000FF0000FF000000FFFFD7
:101D100000FF000000FF00FF00FFFF0000FFFFFFCB
:101D2000FF000000FF0000FFFF00FF00FF00FFFFBB
:101D3000FFFF0000FFFF00FFFFFFFF00FFFFFFFFAF
:081D40002F000000FFFF00006E
:101D48003C0100203C000020BC0500203C02002093
:0C1D5800FFFFFFFFFFFFFFFFFFFFFFFF8B
:0400000508000000EF
:00000001FF
